:020000040800F2
:100000007076002089010008055A00088142000826
:1000100045490008B326000859B200080000000056
:100020000000000000000000000000009B0100082C
:10003000F529000800000000170B000885A500083E
:10004000A3010008A3010008A3010008A301000800
:10005000A3010008A3010008A3010008A3010008F0
:10006000A3010008A3010008A3010008A3010008E0
:10007000A3010008A3010008A3010008A3010008D0
:10008000A3010008A3010008A3010008A3010008C0
:10009000A3010008A3010008A3010008A3010008B0
:1000A000A3010008A3010008A3010008A3010008A0
:1000B000A3010008A1A7000801A80008A3010008E7
:1000C000A3010008A3010008A3010008A301000880
:1000D000A30100089DAC00080DAE00087DAE00082D
:1000E000A3010008A3010008A3010008000000000C
:1000F0000000000000000000000000000000000000
:1001000000000000A3010008A30100080000000097
:1001100000000000000000000000000000000000DF
:10012000A3010008A3010008A3010008A30100081F
:1001300000000000000000000000000000000000BF
:10014000000000000000000000000000A301000803
:100150000000000000000000A3010008A301000847
:10016000A30100080000000000000000A301000837
:10017000DFF810D000F016FC004800478DE60008BC
:10018000AFF300807076002006488047064800479D
:10019000FEE7FEE7FEE7FEE7FEE7FEE7FEE7FEE737
:1001A000FEE7FEE7B5A500087101000872B67047CA
:1001B00062B67047EFF3108072B6704780F3108814
:1001C000704730BF704720BF7047B0FA80F070476B
:1001D00090FAA0F0B0FA80F0704790FAA0F0704763
:1001E0002DE9F05F0546002092469B46884606466C
:1001F000814640241BE0284641464746224600F0FF
:10020000E2FA53465A46C01A914110D31146184695
:10021000224600F0C9FA2D1A67EB01084F46224624
:100220000120002100F0C0FA17EB00094E41201E0A
:10023000A4F10104DFDC484631462A464346BDE8C6
:10024000F09F40EA01039B0703D009E008C9121F91
:1002500008C0042AFAD203E011F8013B00F8013B80
:10026000521EF9D27047D2B201E000F8012B491EAC
:10027000FBD270470022F6E710B513460A46044643
:100280001946FFF7F0FF204610BD30B505462A4657
:100290000B4612F8010B13F8014B08B1A042F8D03D
:1002A0001CB1002802D06D1CF1E7284630BD421C6D
:1002B00010F8011B0029FBD1801A704730B50546A4
:1002C0000020034600E05B1C934205D2EC5CC85C56
:1002D000201A01D1002CF6D130BD000070B50F4DB1
:1002E00000B92868002412E00A4602E09E4203D0CA
:1002F000521C1378002BF9D1DAB2224305D02BB16E
:1003000024B1002100F8011B04E00446401C0678DB
:10031000002EE9D12860204670BD000008090020A9
:1003200070B506460CF0BCFA046805460A220021A6
:10033000304600F06AFA2C6070BDF0B480EA010229
:10034000D40F4200B2EB410F02D2024608461146DA
:100350004A0042D0C30DDDB2C1F3C752AD1A202D01
:1003600035DAC1F3160141F4000204B15242C5F17D
:10037000200602FA06F12A411044B3EBD05F23D0E5
:10038000C4B1012DA0EBC35009DCF0BC4FF000421A
:1003900002EAC352DBB200F5000000F077BA400079
:1003A00000F1807000EBC350A0F1807040EAD17082
:1003B000490009E0490841EAC071A0EBC35000F5CB
:1003C0000000400800EBC350F0BC00F056BA614298
:1003D000012202EB4101001BF6E7F0BC704781F0FF
:1003E0000041AAE780F00040A7E780EA010210B5CB
:1003F00002F00043400022D04A001FD0010E01EB62
:100400001261C0F35600C2F3560240F4000042F4F9
:100410000002A0FB022000047F39140400D0401C1D
:1004200050EA124001D44000491EC2B20C0604EB4F
:10043000D010401C4008802A02D003E0002010BDEC
:1004400020F00100002900DA0020184310BD30B46C
:1004500080EA010202F0004530F0004221F0004045
:1004600013D090B1C30DD40DC2F31601C0F3160022
:10047000E41A41F4000140F400027D34914201D3BA
:10048000641C00E04900002C02DA30BC00207047F8
:100490004FF400000023914201D3891A034340081E
:1004A0004FEA4101F7D151B1914202D14FF00041E1
:1004B00005E002D24FF0010101E06FF0010103EB12
:1004C000C450284430BC00F0D8B9420005D0C0F375
:1004D000C7525242914201DC0020704700EBC150EC
:1004E00070472DE9FE4F804681EA0300C00F0C469D
:1004F000009021F0004123F00045B8EB0200A94133
:1005000005D24046214690461C460B46024623F043
:100510000040104347D0270DC7F30A00C3F30A5128
:100520000290401A019040286BDAC3F3130040F4A4
:10053000801B0098924620B10023D2EB030A63EBA4
:100540000B0B01985946C0F14002504600F02CF9BF
:1005500006460D4650465946019A00F044F910EB04
:1005600008006141002487EA115284EAE7731A43C4
:1005700040D0009A62B3019A012A4FEA075215DC73
:10058000001B61EB02014FF0004202EA0752CDE985
:100590000042001C41F5801132462B4600F0B3F9B1
:1005A00003B0BDE8F08F40462146F9E7001B61EB40
:1005B0000201001C41F5801300185B412018A2F5D0
:1005C000001747EB030140EAD570B6196D4111E001
:1005D0006D084FEA360645EAC0754FEA0752001B20
:1005E00061EB0201001C41F5801149084FEA30001F
:1005F0000019514132462B4603B0BDE8F04F00F0E0
:1006000073B90098012240000023D0EB020263EB93
:10061000E073009821464FEAE074B8EB000061EB0C
:100620000401E9E783F000435BE781F0004158E70C
:100630002DE9FE4F81EA030404F0004421F000415B
:1006400000944FF0000B23F0004350EA01045ED009
:1006500052EA03045BD0C3F30A54C1F30A552C4495
:10066000A4F2F3340194A0FB0254C1F3130141F44A
:100670008011C3F3130343F4801301FB024400FB16
:10068000034E840A970A44EA815447EA8357A4FB3D
:10069000076802958D0A05FB07854FEA932C04FB3A
:1006A0000C542705029D4FEA065847EA1637B5EB6A
:1006B00008056EEB070C870E920E47EA811742EA97
:1006C0008312A7FB0201B6EB0B0164EB00042B0DB8
:1006D00043EA0C335E1844EB1C50DA465146E7FB04
:1006E0000201C5F313044FEA0B3343EA14534FEAF4
:1006F0000432019C43EA0603A4F10C040294009C1A
:10070000CDE900B400F0FFF803B0BDE8F08F0020A1
:100710000146F9E796230022114600F0B7B80EB55E
:1007200040F2334102910021CDE900110A460B4607
:1007300000F0E9F803B000BD20F00040C10DC0F3A7
:10074000160040F400007F2901DA00207047962946
:1007500003DCC1F19601C840704796398840704764
:10076000C1F30A5210B5C1F3130140F2FF3341F453
:1007700080119A4201DA002010BD40F233439A42C0
:10078000A2F2334203DC524200F01DF810BD90404B
:1007900010BD0000002801DBC0F10040002901DB92
:1007A000C1F1004181427047202A04DB203A00FA5F
:1007B00002F1002070479140C2F1200320FA03F3B8
:1007C000194390407047202A04DB203A21FA02F0B6
:1007D0000021704721FA02F3D040C2F1200291407B
:1007E000084319467047202A06DBCB17203A41FA06
:1007F00002F043EAE07306E041FA02F3D040C2F1AE
:10080000200291400843194670472DE9F047914670
:100810000F4680460446002614F8015B2DB100F017
:10082000D3F80068405DC007F6D12B2D02D02D2DE6
:1008300018D0641E4A463946204600F0C9F827B150
:100840003968A14201D1C7F8008071054FF0020458
:100850000BD54042002803DD0CF022F80460A0070D
:10086000BDE8F08746F48066E4E70028F8DA0CF08B
:1008700017F804606FF00040F2E70029A8BF704746
:10088000401C490008BF20F00100704710B4B0FAC6
:1008900080FC00FA0CF050EA010404BF10BC704761
:1008A00049B1CCF1200421FA04F411FA0CF118BF7B
:1008B000012121430843A3EB0C01CB1D4FEA00614A
:1008C0004FEA102042BF002010BC704700EBC3501D
:1008D00010440029A4BF10BC7047401C490008BF49
:1008E00020F0010010BC704710B5141E73F1000415
:1008F00008DA401C41F1000192185B411A4301D112
:1009000020F0010010BD2DE9F04D92469B4611B13B
:10091000B1FA81F202E0B0FA80F220329046FFF79D
:1009200043FF04460F4640EA0A0041EA0B015346E2
:100930005A46084313D0114653EA010019D0C8F1B2
:1009400040025046FFF73FFF05460E4650465946C7
:100950004246FFF729FF084305D0012004E0204666
:100960003946BDE8F08D0020054346EAE0762C4389
:1009700037430A986305E40AA0EB08000022FD0A49
:1009800044EA47540A3002D500200146E9E7010550
:1009900010196941DDE9084500196941BDE8F04DCC
:1009A000A2E70000064C074D06E0E06840F00103B6
:1009B00094E8070098471034AC42F6D3FFF7DCFB0D
:1009C00084000108A400010800487047D4FD000815
:1009D0002DE9F05F82460078002715468B460AF124
:1009E0000104B946302801D09DB113E014F8010B81
:1009F0000127782803D0582801D045B10AE00DB16D
:100A0000102D07D10027102514F8010B02E008254E
:100A100000E00A250026B0460EE005FB080005FBB5
:100A200006F1012701EB10461FFA80F8B6F5803F6A
:100A300000D3B94614F8010B294600F018F8002835
:100A4000EBDABBF1000F05D00FB1641E00E0544695
:100A5000CBF80040B9F1000F06D00BF021FF0221C6
:100A60000160C81EBDE8F09F48EA0640FAE73A2850
:100A700000D2303820F02002412A01D3A2F1370001
:100A8000884201D34FF0FF30704770B58C1810F8D2
:100A9000015B15F0070301D110F8013B2A1106D1C3
:100AA00010F8012B03E010F8016B01F8016B5B1EDD
:100AB000F9D12B0705D40023521E0DD401F8013BB8
:100AC000FAE710F8013BCB1A921C03E013F8015B24
:100AD00001F8015B521EF9D5A142D8D3002070BDA8
:100AE0001D484FF0FF010170002080F309881B486A
:100AF000016881F308881A484FF08051016062B69E
:100B0000FEE717484FF080510160704714484FF0DE
:100B100080510160704772B6EFF3098028B1203828
:100B200080E8F00F0F490968086000B50E4880475B
:100B30005DF804EB0D480E490A78027009480D492A
:100B40000A680260106890E8F00F203080F309888E
:100B50004EF0F40E62B6704722ED00E0580000201F
:100B600004ED00E01C0100201D6A00089E0000202A
:100B70009F000020200100200029816802D041F060
:100B8000010101E021F001018160704700298168C5
:100B900002D041F4807101E021F4807181607047DE
:100BA000014600208968490700D5012070470146A9
:100BB00000208968090700D50120704710B54268F8
:100BC0000E4B0C791A400B6842EA0422134343602F
:100BD00083680B4A1340D1E9024222434C7943EA2D
:100BE00044031A438260C26A097C22F47002491EDF
:100BF000C9B242EA0151C16210BD0000FFFEF0FF20
:100C0000FDF7F1FD70B5072409290AD9C568A1F1DE
:100C10000A0606EB4606B440A543B3401D43C56033
:100C200007E0056901EB4106B440A543B3401D430D
:100C300005611F23072A09D2446B521E02EB820270
:100C400093409C4391400C43446370BD0D2A09D2EC
:100C5000046BD21F02EB820293409C4391400C43F1
:100C6000046370BDC46A0D3A02EB820293409C4358
:100C700091400C43C46270BD816841F008018160FD
:100C800070470029816802D041F4A00101E021F4FD
:100C9000A00181607047816841F004018160704764
:100CA00000210160017141718160C1600121017405
:100CB000704700002DE9FF4F8FB082461E469346D5
:100CC000142105A8FFF7D6FA14210AA8FFF7D2FAD3
:100CD0007C215948FFF7CEFA574D574C9835574F5E
:100CE000297EDFF85C9104F16C0001290ED0D7F861
:100CF0000A102161D7F80E10A1675249097801291D
:100D000009D099F817120B2905D002E04E4909685D
:100D10002161022100E0032101F0BCFE287EA846EB
:100D200001280BD1002000F029F900287CD000F127
:100D30000B01414805221C3009F0F6FBD9F84500AB
:100D400060613D484D465146303001F02FFF98F824
:100D50001800012804D100200BF014FD012809D14E
:100D600037F8360F40BAB978000440EA0120F97824
:100D70000843206030481099623001F08BFE5946DC
:100D8000201D01F087FED5F81302A06195F84D00F3
:100D900001AF95F8493095F84A2095F84B1087E84F
:100DA0000F0095F84E00009095F84F3027A21421BF
:100DB00005A8643B0BF05AFD0146401C37D015F8DE
:100DC000503F01AF28796A78A97887E80F006879E1
:100DD0000090AB791DA214210AA8643B0BF046FDDC
:100DE0000146401C23D01448142205A93A30FFF7CD
:100DF00028FA114814220AA94E30FFF722FA2020BF
:100E000084F8610084F84D004FF47A70B6FBF0F17D
:100E100000FB116119B1B6FBF0F100FB1160064A4D
:100E2000022108F0A7F9012013B0BDE8F08F0FA050
:100E30000BF00CFD0020F7E7107000203459002063
:100E4000803B002028590020DC0200203230253071
:100E500032642D253032642D253032642D25303218
:100E6000642D253032642D2530326400736E70722B
:100E7000696E7466206572726F722C2074686520CA
:100E80006C656E2069732025640000000A4810B567
:100E900000218180C180018141817C210C30FFF7DC
:100EA000E9F905487C218830FFF7E4F97C21034803
:100EB000FFF7E0F9012010BD986D00209C6E002026
:100EC000F8B50E46044602F005FD034600208DF8F5
:100ED00000006CB1062E0BD353B12088A57840BA20
:100EE000E178A0F5B442A53A39D1E81CB04201D06E
:100EF0000020F8BD832932D1A179A08849060A0EC5
:100F000040BAE11DB0F5805F11D018B311B30AB338
:100F1000144C002334F8335085421CD104EBC30534
:100F20006D68C5B104EBC3035B68984717E06019AF
:100F3000B0F80110807849BA00F07F008DF8000009
:100F40001A7962F3DF1000F58050884207D16846B5
:100F500001F042FD03E05B1CDBB2102BDAD3012071
:100F6000F8BD0000D0FC00080A2801D90020704715
:100F700001490844C07870474055002000F02CB863
:100F800008B10020704701487047000081690020C7
:100F90000148007870470000E40200200A2801D9C7
:100FA00000207047014908444078704740550020B0
:100FB00008B100207047014800787047044E0020B7
:100FC00001484079704700004055002001480078F2
:100FD000704700004055002010B508B1002010BD3A
:100FE00003491022A1F27320FFF72BF9014810BD2D
:100FF000C65700205355002008B100207047014813
:1010000000787047F0020020064991F832108142C2
:1010100001D800207047044900EB401001EBC000EC
:101020007047000048020020A84E002070B52C4CEC
:101030004FF47A766089401C60814FF6FF70208102
:10104000208880B2A080411EE180B0FBF6F106FB53
:10105000110199B3B0FBF6F106FB1100204A012102
:101060000C32154608F086F87C2229461D48FFF709
:10107000E8F8E18871B13046B1FBF0F206FB1212DC
:101080001AB1B1FBF0F206FB1210164A01217C3AAC
:1010900008F070F8A088A0B1012815D012492846A0
:1010A00001F026FE61894FF4F85007F0D4F80E489D
:1010B000002100BF01F0D0FE012070BDFFE73046E7
:1010C000CCE700210948F5E70949284601F010FE60
:1010D00061894FF4FC5007F0BEF800210448E9E7AD
:1010E000986D00209C6E0020540800207C08002091
:1010F000680800202DE9F041294C05464FF47A7626
:1011000004F1880704F10C0826E060897C22401C69
:101110006081A0882081E088A080401EE080414658
:101120002048FFF78EF87C2239464046FFF789F8C1
:10113000E088C8B1628931468A4215D2B0FBF1F22B
:1011400001FB12021AB1B0FBF1F206FB12010846D4
:101150003A46012108F00EF86D1EEDB2D5D2E088B6
:1011600010B16089B0420BD30F49404601F0C0FD79
:1011700061894FF4FC5007F06EF800210A480AE03C
:101180000A49404601F0B4FD61894FF4F85007F078
:1011900062F80021054801F05FFE0120BDE8F08102
:1011A000986D00209C6E00206808002054080020E4
:1011B0002DE9F047344C06464FF47A7804F58279ED
:1011C0000027324D04F10C0A34E060897C22401E75
:1011D0006081A088E0802089A0802B48514688301B
:1011E000FFF72FF87C2249465046FFF72AF820895E
:1011F000C8B12168884212D8401C81B24046B1FB78
:10120000F0F208FB121221811AB1B1FBF0F208FBD7
:1012100012104A46012107F0ADFF208918B181B2B2
:101220002068814206D92878401C28702781012037
:10123000608102E0761EF6B2C7D2144829783030B9
:10124000022901D12189C1B1A188A1F57F42FF3ACC
:101250000FD00F49504601F04BFD61894FF4F85013
:1012600006F0F9FF00210A4801F0F6FD0120BDE873
:10127000F087877000210748F6E78770002105484E
:1012800001F0EAFD2F70F1E7986D002018060020AC
:1012900054080020600600200A2801D90020704769
:1012A000014A1044C170704740550020094991F827
:1012B0003210814201D800207047074A002110B93E
:1012C000064B1170197010444170C170C173012038
:1012D000704700004802002040550020E402002032
:1012E000002803D1024800220170027670470000F6
:1012F000044E0020012070470149487101207047C9
:1013000040550020032900D208B100207047024850
:101310000170012070470000F002002070B5314CD0
:1013200006460125607840B965702F4805F0E6FB58
:10133000A0602D4805F0E2FBE0602C480078002812
:1013400029480DD005F0DAFBA060274805F0D6FB50
:10135000E06065700020FFF707FE012804D03FE041
:1013600005F0CCFBA060F5E7D4E90201884201D387
:10137000421A01E0CA430244B24202D96278012A09
:1013800003D0884209D3411A09E0E0600AF01CFD4D
:10139000022060700020207122E0C943014443F61E
:1013A0009822914202D96178022903D060780328FB
:1013B0000DD015E0E0600AF007FD2079401CC0B2B6
:1013C000207106280CD90020FFF770FF07E00648BF
:1013D00005F094FBA060044805F090FBE0606570A8
:1013E000012070BDF00200203C000020803B002066
:1013F00010B50C4805F082FB0B4940F6B834486044
:101400008A688860831A0022A34208D20878401CA8
:10141000C0B20870032803D30A70012010BD0A70FF
:10142000002010BD3C0000200806002010B559B176
:10143000064803228276098849BAC161002104481E
:1014400001F00AFD012010BD002010BD803B0020EE
:101450004C0600202DE9F8435B4A08214FF4FA605E
:1014600005F008FB5948007E01287BD16A4658A147
:101470005A4804F01FFCBDF80000002872D1584FF4
:101480004FF480763146384602F019FA4E4A082168
:10149000642005F0EFFAF5002946384602F00DFA0F
:1014A0006C002146384602F008FA474A0821FA2023
:1014B00005F0E0FA3146384602F001FA424A0821C6
:1014C000642005F0D7FA2946384602F0F6F921469D
:1014D000384602F0F2F93C4A0821FA2005F0CAFA2F
:1014E0003E4D404E5C3D404CDFF8009100274FF4EC
:1014F0007A7800BF95F85B0068B1307808B10628AB
:1015000009D1314A0821404605F0B4FA0220FFF71C
:10151000F3FE85F85B70FFF753FD78B1207910B1C9
:1015200008F094F92771FFF751FD012801D003F06D
:1015300077FCFFF74BFD012820D03AE001F046F997
:10154000214805F0DBFAA0600020FFF70DFD01281F
:1015500011D0307804280ED0D4E90201884202D399
:10156000401A02E02EE0C94308442149884220D3B2
:1015700009F060F81DE0A068E0601AE017485C38E8
:1015800003F066FB30B1104A082147F2305005F0F5
:1015900071FA0EE06079401CC0B26071052804D970
:1015A000677108F09FFD09F045F808F04FF903F066
:1015B00037FC4846FFF7B2FE034A0821404605F0D3
:1015C00059FA97E7BDE8F8833C000020A870002096
:1015D00073656E646D757465780000007C4E002044
:1015E00000080140803B00203802002080EE3600D9
:1015F000C02709002DE9F04F8BB0182104A8FEF791
:1016000039FED04A08214FF4FA6005F033FA09F0A8
:10161000EDF901AB1422CCA1CE4804F0E5FCBDF8F5
:10162000040030B1C8A1CCA00BF010F90BB0BDE89C
:10163000F08FCE48007E0128F8D1DFF838830024EF
:1016400008F11006DFF82893A346A8F1240AA6F1B2
:101650000807C94D08E0BB4805F050FA46F82400D9
:1016600047F82400641CA4B295F83200A042F2D8D6
:10167000002406E0B34805F041FA46F82400641C53
:10168000A4B295F83200A042F4D8BA4955200839DE
:101690000870FFF795FC022813D1DAF818005446B9
:1016A00028B9A84805F02AFA60610120A061A54880
:1016B00005F024FA6169401AB049884201D908F05E
:1016C000B9FF4FF47A70A34A009040F21A433032C7
:1016D00004A9A0480DF098F8002879D1A84890F8FE
:1016E0005800012855D1FFF76BFC022851D1A548BD
:1016F0000078E0B3401E8AF801009AF80100A24980
:1017000000EB400201EBC20154460B6940F20D218F
:1017100010FB01F09D4901EB40029AF800008102A4
:1017200007200CF01BFD607800EB4001964800EBB1
:10173000C100016920690844914920614A6D8242D3
:101740001DD181F858B008F0CDFC8D48894A052399
:10175000406DC4F81D00083A002107200CF0FEFC83
:10176000784A08214FF47A7005F084F900E002E02D
:1017700002F0E6FF0AE002218AF80110BDE705D277
:1017800081F858B008F0AEFC08F054FF2078401CF7
:10179000207004980A281BD195F83200012806D041
:1017A0006C480899303008F0E9F800247EE0002009
:1017B000FFF7F4FB01280CD066480899303008F098
:1017C000DDF80898642875D26D4890F8580088B301
:1017D00070E0089881B25F4830300AF0D8FF08B155
:1017E000306838606AA008990BF030F85948089AB8
:1017F000303000F802B00899B1F5967F0DD2002480
:1018000007E054483030015D68A00BF01FF8641CFD
:10181000A4B20898A042F4D802E066A00BF016F833
:1018200069A00BF013F84B4840F21A413030FEF734
:1018300021FD3FE0FFE7474964A0303181F819B44A
:10184000089A01F802B00BF001F833E004EB441100
:1018500009EBC101484691F80421012A24D181F8FD
:1018600004B11CB1087A682814D01BE0DAF808200B
:10187000521CCAF80820B0F8021109F108000AF059
:1018800086FF78B130683860DAF80410491CCAF86D
:10189000041007E001210846FFF7FEFC56F824007B
:1018A00047F8240048F824B0641CA4B295F832002C
:1018B000A042CBD800240AE0E0B2FFF76FFB01287A
:1018C0000BD056F8240047F82400641CA4B295F805
:1018D0003200A0427FF6CCAEEEE795F83200012848
:1018E0000FD958F82410491C48F824100D2908D3A2
:1018F00048F824B02CB900231A4619461E200DF0D2
:101900004BF856F8241057F82400814201D3081AE6
:1019100001E0C04308444EF660218842D5D3FFF76A
:101920004FFB0028D1D156F8240047F82400E0B23C
:10193000FFF7BCFC002CC8D1DAF80C10491CCAF81F
:101940000C10C2E73C00002034472073656E642011
:101950006D710000B85000204F535143726561749F
:1019600065202573204661696C000000A870002086
:10197000A84E0020BC02002048020020E093040092
:10198000204E002034020020BC4D00206C4100207D
:10199000686F757461692D52454356206C656E3AC7
:1019A00025642C727820646174613A0025303258C5
:1019B000200000006C656E3E3330306275646179E2
:1019C000696E3A25640D0A000D0A00003132727802
:1019D0003A2025730D0A00002DE9F04188B0182146
:1019E00001A8FEF747FC0020FFF7CAFA80469C4A90
:1019F00008214FF4FA6005F03DF89A48007E01286E
:101A00000CD107AB142298A19A4804F0EDFABDF866
:101A10001C0030B194A198A00AF018FF08B0BDE8EE
:101A2000F0819A4D9A4E4FF47A7700BFFFF7C8FACB
:101A300002280DD0FFF7C4FA012809D08D4A0A23E5
:101A40000C3A01A98B4800970CF0DEFE30B1A6E0FD
:101A5000834A0821384605F00DF8E7E70398202867
:101A600025D2DFE800F0109C9C259C6F4F679C7A84
:101A700080858A9C9C9C9C34597477547D9C9C9C4A
:101A80009C9C9C9C8F95FFF7A1FA01280FD1002008
:101A9000FFF784FA01280AD1049800287FD10AF0C0
:101AA000A7FE95F83200012879D90AF04BFE76E0BE
:101AB000FFF78CFA012872D10020FFF76FFA012896
:101AC0006DD1049800286AD10AF097FE67E0049867
:101AD00088B90020012109F0C1FB04980121C0B29E
:101AE000FFF7FEFB0498C0B20AF053FE04980021F1
:101AF000C0B20AF089FE95F8320001284FD90AF0E9
:101B0000A7FB4CE00498C0B20AF052FE47E00498EC
:101B1000C0B209F0F3FE42E0FFF758FA01283ED1C7
:101B20000020FFF73BFA012839D10498F8B90AF0F0
:101B300071FA34E00498D0B901224146002007F040
:101B4000B3F92CE00498C0B20AF03EFE27E00AF098
:101B500036FE24E00AF03DFE21E00AF03FFE1EE0E2
:101B60000AF041FE1BE00498C0B20AF01FFE16E026
:101B70000498C0B20AF015FE11E00498C0B20AF051
:101B800041FE0CE095F83200012808D9002004E05D
:101B900095F83200012802D9012008F009F9002443
:101BA0000EE000BFFFF712FA012807D12046FFF729
:101BB000F5F9012802D184B10AF020FD641CE4B2D9
:101BC00095F83200A042EDD8C0B2012811D9D6E96B
:101BD0000001884204D3411A04E00AF0EBFDEDE76E
:101BE000C943014442F21072914202D3706008F07E
:101BF0001FF900242046FFF7DBF901280FD0184811
:101C000004F07CFF2349C4EBC40201EB820148606D
:101C1000C1F80800FFF7DAF9012814D01BE0FFF73C
:101C2000D5F90128F6D10020FFF7B8F90128F1D144
:101C30000020FFF799F90128ECD100224146204607
:101C400007F032F9E6E72046FFF7A8F9012802D1AC
:101C50002046FFF789F9641C14F0FF04CAD0E5E6BA
:101C60003C000020A870002034472073656E64207B
:101C70006D710000105500204F535143726561741F
:101C800065202573204661696C0000004802002031
:101C9000D4020020044E002086B018216846FEF7CA
:101CA000E9FA06F0CDFB06F065FD412006F0E2FB07
:101CB0004C4A0821642004F0DDFE4B4F4B4C4C4D48
:101CC00040F6B83801F006FE0646464A0821642070
:101CD00004F0D0FE0DF068F9207A01281DD14548A6
:101CE000864202D044488642ECD1387E01282DD06D
:101CF0000DF0F8F988B14021284601F0E0FD394A9D
:101D00000821642004F0B6FE4021284601F0D5FDEC
:101D1000344A0821404604F0ADFE207A0228D1D191
:101D2000387E01282DD035486421D0F81302B0FB4D
:101D3000F1F00DF021FC0028C4D02078C8B30023B6
:101D40001A462F4918460CF021FDBBE70BF05AF854
:101D50000028E2D02548C16C40F8421FD0F80E1090
:101D60004160418A01810020FFF7FEF8012801D07F
:101D700000BFC0E700231A4619460B200CF00CFEEA
:101D8000B9E700200AF0FEFC01289BD10BF03AF8DD
:101D9000002897D015490A224C31A1F10A00FEF71C
:101DA0008DFA4FF00003B8B10022164910460CF02E
:101DB000EDFC4021284601F082FD0A4A08216420FA
:101DC00004F058FE4021284601F077FD054A08211D
:101DD000404604F04FFE75E70422002102200DF07A
:101DE0003FF8E6E73C000020A870002028590020BA
:101DF000001C01404C06002078070020803B00209A
:101E0000EC060020D806002008B50BF0C5FD6A4698
:101E10000821642004F02EFE0BF06AFE0AF08AFF0F
:101E20004FF47A74FFF7CCF8012818D0FFF7C8F800
:101E3000022814D00CF002FC0BF010FE0BF02CF971
:101E400001F078FD0BF09EFD07480BF0D7FC00F089
:101E500071FC064A0821012004F00CFEE2E7034A67
:101E600008212046F8E70000803B00203C000020CD
:101E70002DE9F0418AB082200D210024CDE9021025
:101E80001426CDE904643C4A1E20CDE900020DF180
:101E9000180809AF0325384888E8B0002346374AB8
:101EA00037A1B83804F030FB4FF00A08374A062053
:101EB00005948DE805016421CDE903160DF1180C98
:101EC00032488CE8B0000023314A32A1B83804F01F
:101ED0001BFBE6201721CDE90210CDE90464304A4E
:101EE0000720CDE900020DF1180C2D488CE8B00058
:101EF00000232C4A2CA1B83804F006FBC820CDE9F9
:101F000002602C4905940820CDE900010DF1180C60
:101F1000049628488CE8B0000023274A27A1B83847
:101F200004F0F2FA06AB059483E8B0001621264AC5
:101F30000095CDE90121DC20CDE9030622480023EC
:101F4000224A23A1B83804F0DFFACDF8008020211E
:101F5000224A0594CDE901213001CDE9030606AE00
:101F60001E4886E8B00000231D4A1EA1B83804F0C0
:101F7000CBFA0AB0BDE8F081D80B0020991C00080C
:101F8000417070204361726400000000980E0020D0
:101F9000091E000841707020436861726765000087
:101FA000E0100020F11F0008417070204477696E36
:101FB000000000003015002055140008417070200A
:101FC00034474D61696E000008190020F5150008BE
:101FD000417070203447526563760000301D002048
:101FE000D919000841707020344753656E640000B1
:101FF0002DE9F04F89B00025182101A8FEF73AF924
:10200000AD4A08214FF47A7004F034FD08F05AFD0F
:102010000CF0C4F806F092FFA84E307E012801D1E2
:1020200006F08CFFA54808AB1422A5A1283003F0C8
:10203000DBFFBDF8200030B1A1A1A5A00AF006FC8D
:1020400009B0BDE8F08F9C4A08214FF47A7004F083
:1020500011FD0CF08BFDDFF88CB2DFF88CA2DFF8FD
:102060008C92A34FA34C4FF0020800BFFEF7A8FFCD
:10207000012810D0FEF7A4FF02280CD09A4A4FF492
:10208000FA70343A0090322301A902F55B700CF02B
:10209000BBFB58B1E5E02946974800F0DDFE864AD3
:1020A00008214FF47A7004F0E5FCDFE7019801287D
:1020B0003BD0042808D00628ECD10598C1B28A4844
:1020C0003438FEF7FDFECCE0002DE3D08B480499B8
:1020D000814212D00A468A498A420ED089498A42F0
:1020E0000BD05A4509D088498A4206D01146874A02
:1020F000914202D0864A914213D1854210D0804845
:1021000085420DD07F4885420AD05D4508D07E4883
:10211000854205D087F802800498294600F09CFE8D
:102120009FE00020B8700846F7E7039820B1012827
:1021300025D002280FD161E099F800000028307EF8
:102140000AD0012804D1734804F0A4F80AF070FB07
:10215000704804F0C9F884E0012809D10121002069
:1021600009F07CF800231A46194618460CF014FCB6
:10217000604A002134324FF4F273092069E099F883
:10218000001039B1002189F8001001210020FFF76B
:10219000A7F866E06048016821658188A4F85410BA
:1021A000807984F85600D4F85700C4F85B0004988E
:1021B00084F81702307E012811D0AB4505D087F88E
:1021C000028029464F4800F047FE94F8170211227A
:1021D000DAF80030012100BFFEF76CFD41E008F0A5
:1021E00093F900231A46194611200CF0D5FB112251
:1021F00094F817020021DAF80030EDE7464801684C
:1022000021658188A4F85410807984F85600002054
:102210000DF05EFAC4F85B000498C0B284F81702AF
:10222000317E012928D01122DAF80030012100BFC7
:10223000FEF740FD0CF082FE002089F800004FF40C
:10224000F27529463548FEF715F82B46334A00212A
:1022500009200BF083FF4023314A00210A200BF0B4
:102260007DFF01F037FB050002D0E86800B1804730
:10227000388801280FD013E008F046F900231A46E9
:10228000194611200CF088FB112294F81702002146
:10229000DAF80030CCE78DF81C8007A800F09CFB32
:1022A00020780CF0E9FC0BF099FC0BF0E1FD0CF050
:1022B000C5FC0CF0A9F9D9E63C000020A87000206C
:1022C0006477696E207461736B206D71000000008B
:1022D0004F535143726561746520257320466169CF
:1022E0006C00000000070020986D00200000002016
:1022F00048060020803B002004080020C40600207F
:10230000D8060020EC0600201407002078070020E3
:10231000E00800203E000020340000201C6B00205C
:102320003459002008B5002500F09CF94FF4E13045
:1023300008F068FC00F0BEF900F08CF970490968FB
:10234000B0FBF1F004F00EFC684604F087F808F0EA
:1023500097F801F069F80BF07FFE6A4C01202070BD
:1023600069A00AF073FA90200BF0C6FB02F032FA73
:1023700043F63F0144F61F6008F0C0F901F0E4FFA6
:102380008F21092008F0E4F9FFF772FD6E4800681C
:1023900001BA6D48A162001D006802BA6A48E26293
:1023A0000830006803BA69A023630AF04FFA6D4849
:1023B000A16A0160E16A4160216B8160AA21425DEE
:1023C00002B941556D1C0C2DF9D341F66A01062066
:1023D00001F084FFDFF88C814A4D08F10C08624E51
:1023E0003435624F01F09CFFD8F800106A46491C52
:1023F000C8F800100821642004F03CFB00F06AFFDC
:10240000B0782871F0786430A87170786871387885
:10241000A87078786870B87828706078401CC0B26E
:1024200060701E28DED94F49002018316070D1E954
:102430002801014464225043B0FBF1F160688842F6
:1024400000DA61604AA00AF001FA4F496422D1E93A
:10245000280101445043B0FBF1F1A068884200DA42
:10246000A1604AA00AF0F2F94D496422D1E928019D
:1024700001445043B0FBF1F1E068884200DAE160CA
:1024800048A00AF0E3F94D496422D1E9280101444A
:102490005043B0FBF1F12069884200DA216148A085
:1024A0000AF0D4F94B496422D1E928010144504390
:1024B000B0FBF1F16069884200DA616146A00AF080
:1024C000C5F94B496422D1E9280101445043B0FBCE
:1024D000F1F1A069884200DAA16146A00AF0B6F9DC
:1024E0004A496422D1E9280101445043B0FBF1F18B
:1024F000E069884200DAE16145A00AF0A7F971E7D6
:1025000068F900080000002053797374656D20524B
:1025100065736574202053797374656D20526573FB
:102520006574202053797374656D205265736574EA
:102530002E2E2E2E2E2E2E2E2E2E2E2E2E2E2E2EBB
:102540002E2E2E2E2E0D0A00E8F7FF1F4D4355208C
:1025500049643A25303878202530387820253038BD
:10256000780A000010090020EC010020E80100209A
:102570004170705461736B53746172745443423A86
:1025800025640D0A00000000200B002041707054EB
:1025900061736B436172645443423A25640D0A00CF
:1025A000E00D00204170705461736B436861726785
:1025B000655443423A25640D0A00000028100020AB
:1025C0004170705461736B4477696E5443423A258D
:1025D000640D0A00781400204170705461736B34EC
:1025E000474D61696E5443423A25640D0A0000006C
:1025F000501800204170705461736B34475265630A
:10260000765443423A25640D0A000000781C0020ED
:102610004170705461736B344753656E6454434228
:102620003A25640D0A000000074810B504218176A0
:102630000021C1610549022088700021044800F092
:102640000BFC012010BD0000803B0020480600204C
:102650004C06002000B585B0684606F0F1FA0098F7
:1026600005B000BD4FF4407003F000BA2DE9F0430F
:10267000894607460025A1F1010816E00021A9EBD3
:1026800005060C46761E0BE007EB440037F81420D5
:1026900043889A4203D9811C07F062FF0121641C20
:1026A000A642F1DC002902D06D1C4545E6DBBDE801
:1026B000F083FEE7044910B50020086000F01CF824
:1026C000BDE8104000F002B82401002010B5FDF76D
:1026D00071FD04461021044802F035F92046BDE89A
:1026E0001040FDF76BBD00009435002001490860E3
:1026F000704700002401002010B5FFF7ABFF084928
:102700000A6842F080720A60064900224A600A683C
:1027100042F001020A60BDE81040FFF7E7BF000089
:10272000FCED00E0001000E0014840687047000048
:10273000001000E010B50C4C2078012812D10B4895
:102740000AF0DAFD01280DD1094A0821C82004F059
:1027500091F9022020720749002020708A78022A0D
:1027600000D18870012010BD28590020803B002036
:102770003C00002048060020054910B500200A460C
:1027800008600146042305200BF0E8FC012010BD81
:10279000986D002010B509B1042A01D0002010BDA9
:1027A00008888A7840BA0004C97840EA02200843C1
:1027B000054925230A460862002101200BF0CEFCC2
:1027C00002F05EFD012010BDA87000202DE9F0414F
:1027D0000020FEF7E3FB01280AD01F48C178491CFE
:1027E000C9B2C170072903D90021C17006F09AFF50
:1027F000FEF7ECFB012801D002F012FBFEF7E6FB2E
:10280000012802D00020BDE8F081134D00241035CE
:1028100005F1220642F2486714E02046FEF7BEFBAF
:10282000012805D0A4B13A460CA1204602F0B2F826
:102830002046FEF7B3FB012802D0204606F068FFD1
:10284000641CE4B295F83200A042E6D80120DAE731
:102850002A8C3146E9E70000380200203131342E5D
:1028600035352E3138362E3230360000632801D906
:10287000002070470A21B0FBF1F201FB1202B0FB0D
:10288000F1F002EB0010C0B270470029016802D0DD
:1028900041F0010102E04FF6FE7211400160704705
:1028A0000021016041608160C1600161416181611D
:1028B000C161016241628162704730B5036847F6C9
:1028C000F07293430C6A8A682243D1E904452C4391
:1028D00022438C692243CC6922434C6A22438C6A8E
:1028E00022431A430260CA6842600A6882604968EB
:1028F000C16030BD01684FF6FE72114001600021D9
:10290000016041608160C1603149314A08399042BB
:1029100003D1486840F00F0006E02D4A143290427F
:1029200004D1486840F0F00048607047284A2832D7
:10293000904203D1486840F47060F5E7244A3C3285
:10294000904203D1486840F47040EDE7204A50328D
:10295000904203D1486840F47020E5E71C4A643295
:10296000904203D1486840F47000DDE7184A78329D
:10297000904203D1486840F07060D5E7154A111FB6
:10298000904203D1086840F00F0006E0114A14326B
:10299000904204D1086840F0F000086070470D4A8A
:1029A0002832904203D1086840F47060F5E7094A84
:1029B0003C32904203D1086840F47040EDE7054A8C
:1029C00050329042EAD1086840F47020E5E70000F8
:1029D000080002400804024010B5044600F07AFFE7
:1029E00010B98168002904D081682046BDE81040F4
:1029F000084710BD7047002206E00021491C89B23B
:102A00006E29FBD3521C92B28242F6D3704700006B
:102A100070B5A4B00C461546064600F05BFF0028D2
:102A200023D0782105A8FDF725FC0DF1040CE3B2B5
:102A3000C4F30722C4F30741E8B28CE80F00C5F3E2
:102A40000720C5F30743009009A2782105A803F2E7
:102A50006C7309F00BFF307941F2050141EAC010B7
:102A60001E2205A905F025FC012024B070BD000040
:102A7000253034642D2D253032642D2D25303264DF
:102A80002D2D253032643A3A253032643A3A2530D9
:102A90003264000070B50D460646002400F01AFFAF
:102AA000132D11D280B10C4904EB440011F8200021
:102AB000A8420BD104EB440001EB8000028941687D
:102AC0003046FDF7BEFB05E0002070BD641CE4B29B
:102AD000132CE9D3012070BDF0FA000870B50D4643
:102AE0000646002400F0F6FE132D11D280B10C49E9
:102AF00004EB440011F82000A8420BD104EB440081
:102B000001EB8000027A4168304605F0D2FB05E017
:102B1000002070BD641CE4B2132CE9D3012070BD09
:102B2000F0FA000870B5A4B00C461546064600F051
:102B3000D1FE002827D0782105A8FDF79BFB0DF1D9
:102B4000040CE3B2C4F30722C4F30741E8B28CE8F3
:102B50000F00C5F30720C5F3074300900BA27821AF
:102B600005A803F26C7309F081FE1E2205A9304608
:102B700005F09FFB26F03F00303080B24FF6FF712A
:102B800007F06CFB012024B070BD000025303464D8
:102B90002D253032642D2530326420253032643AC0
:102BA000253032643A2530326400000070B50D469D
:102BB0000646002400F08EFE152D11D280B10C497E
:102BC00004EB440011F82000A8420BD104EB4400B0
:102BD00001EB8000028941683046FDF732FB05E0D9
:102BE000002070BD641CE4B2152CE9D3012070BD37
:102BF000D4FB00082DE9F0473B4842F2600842F25E
:102C00005009007E012805D0C821404605F00CFB84
:102C1000C82163E00020FEF7C1F9344C00260127EB
:102C2000A51C48B10020FEF79FF928B1267028782E
:102C300058B12E70012105E027702878012804D0B2
:102C40002F700021404605F0EFFAFEF7A1F938B9E0
:102C5000DFF89880A8F10C0898F80200012816D037
:102C6000FEF796F9D0B1FEF793F9632816D0FEF778
:102C70008FF9012818D0FEF78BF914281BD20220F7
:102C80006070697802292CD06870022126E000214A
:102C9000484605F0C9FA88F8026022E06670687854
:102CA000F8B16E70002119E067706878012818D0BB
:102CB0006F70012112E0FEF76BF9192807D203208B
:102CC0006070697803290CD06870032106E0042045
:102CD00060706978042904D068700421484605F0C2
:102CE000A3FA0120BDE8F087A87000202406002088
:102CF0002DE9F0410D4604467C214E48FDF7BAFA15
:102D000020694C4E00BA0A22306004F16C01301D7B
:102D1000FDF797FA142204F11C0106F10E00FDF7ED
:102D200090FA60690A2200BA706206F1280004F184
:102D300030010746FDF785FA20687063A6F1180098
:102D4000D4F8621040F8501FD4F866104160B4F80F
:102D50006A1001816168C0F80A10A168C0F80E10FD
:102D6000A1894182A0696421B0FBF1F000BAF0644E
:102D7000A06F142200BA306506F1540004F13A0144
:102D80000646FDF75EFA2B48142204F14E01683026
:102D9000FDF757FA287941F2010141EAC0102222D9
:102DA000244905F086FA287941F2120141EAC0105F
:102DB00020490422243105F07CFA287941F21401DB
:102DC00041EAC0100A22394605F073FA287941F227
:102DD000190141EAC01017490422343105F069FA9B
:102DE000287941F21B0141EAC01012490A22383108
:102DF00005F05FFA28794FF4815141EAC0100D497E
:102E00000E22423105F055FA287941F2270141EAB4
:102E1000C01008490422503105F04BFA287941F2DC
:102E2000500141EAC0102822314605F042FA012043
:102E3000BDE8F081186F00201CB5064A1168938820
:102E4000ADF8043092798DF80620019AFFF7E0FD85
:102E500000201CBD3400002010B5002812D001B1A4
:102E60000160094C094A2060018A1180007905F04F
:102E7000D9F92068C068002804D0411C02D0BDE800
:102E80001040004710BD0000140600204806002036
:102E900070B515460E00044622D0002D20D045F610
:102EA000A52001F08DFCE81CC0B201F059FC822085
:102EB00001F056FC204601F083FC002404E0305D64
:102EC00001F04EFC641CE4B2AC42F8D3FF2001F0E8
:102ED00047FCFF2001F044FCBDE8704001F05CBC01
:102EE00070BD010901EB810100F00F0000EB410012
:102EF000C0B27047002103E0491C0A38C9B2C0B211
:102F00000A28F9D2090740EA1160704710B501217B
:102F1000080705F059FE012004F0E6FF012005F046
:102F20006BFE002005F068FE012005F049FF4120FE
:102F300005F02EFF0028FAD04FF4807005F078FEDF
:102F40000D4CFF2060607F202060012005F06AFEAC
:102F500000F0EEF909482168416061688160002154
:102F6000016000F0C3F8002804D1BDE8104004A0BF
:102F700009F06CBC10BD0000E0010020743B002093
:102F800045525443205072657363616C65722043EF
:102F90006F6E666967206661696C656421210D0A40
:102FA0000000000008B5002000900C4801684906A8
:102FB00012D44FF0FF31016083130168009A01F0D1
:102FC0004001521C00929A4201D00029F5D00068BD
:102FD000400601D4002008BD012008BD0C28004097
:102FE0000248016821F08001016070470C28004010
:102FF00038B50C4601001248006812480068124AB1
:1030000000EA02000090C0F30740E070009AC2F3AB
:1030100004226270009A02F03F02A270009AC2F38A
:10302000423222700AD1FFF75CFFE0706078FFF750
:1030300058FF6070A078FFF754FFA07038BD000003
:1030400008280040042800403FFFFF0038B50C4628
:1030500001001348006813480068134A4FF040030A
:1030600000EA02000090C0F305402070009AC2F30D
:1030700006226270009A02F07F02A270009A03EAB0
:103080001242E2700AD1FFF72CFF20706078FFF740
:1030900028FF6070A078FFF724FFA07038BD000003
:1030A00008280040002800407F7F7F0030B50E4D8B
:1030B000CA222A6053222A600B4B0B4A1C3B1C324B
:1030C000002920F00404196800F0040004D0214312
:1030D00019601168014303E0A1431960116881433D
:1030E0001160FF20286030BD2428004070B5124DCB
:1030F00004460026CA20286053202860FFF752FFAC
:10310000A8B10D481C38016821F040010160016838
:103110002268114301600848A16814380160016801
:10312000A28841EA02410160FFF75AFF0126FF2011
:103130002860304670BD00002428004008B50349CF
:1031400001EB80000090006808BD0000502800409E
:1031500070B50C46010060784FF000062AD0FFF7EA
:10316000C0FEA078FFF7BDFEA078E17840EA0145F7
:1031700060782178000240EA41300543194CCA20AA
:10318000206053202060FFF70DFF78B116480540FE
:10319000144820380560FFF723FF12481C380068E8
:1031A000800602D400F0C4F800B10126FF202060A0
:1031B000304670BDC10603D520F010000A306070A3
:1031C000E078FFF797FE05046078FFF793FE45EA85
:1031D0000025A078FFF78EFE0543207845EA4035AC
:1031E000CCE70000242800403FFFFF002DE9F0411C
:1031F000244F0C4602004FF0000620783A68314612
:103200004FEA426204D0002A15DAFFF76AFE13E0A3
:10321000002A00DBE170FFF76DFE05046078FFF720
:1032200069FE45EA0025A078FFF764FE0543E078D3
:1032300045EA00450AE0E170A078217840EA0145BE
:103240006078E178000240EA014005430D4CCA2055
:103250001C34206053202060FFF7A4FE68B10A48A8
:103260000540084808380560FFF7BAFE3868800650
:1032700002D400F05DF800B10126FF202060304646
:10328000BDE8F081082800407F7F7F00104810B51E
:103290000021C17008220270102242708170014624
:1032A0000120FFF7A3FF0A480521001D0170092135
:1032B0008170072141702221C17001460120FFF772
:1032C00047FFBDE8104043F2F221002000F056B85D
:1032D000E801002010B505490020FFF789FE0349E9
:1032E000BDE81040091F0020FFF7B0BEEC01002030
:1032F0003EB502208DF8080001248DF80B408DF8B2
:10330000094000258DF80A5002A802F07DFB6005F7
:1033100000908DF806408DF8045008208DF80500C7
:10332000684600F035F80121C803FFF7BFFE3EBD37
:1033300018B5002010490090CA200860532008608A
:103340000D481838026822F0A00202604FF40034E1
:103350000268009B02F020025B1C0093A34201D094
:10336000002AF5D00068800601D5012000E0002089
:10337000FF220A6018BD00002428004008B5034A57
:1033800002EB80000090016008BD00005028004062
:1033900030B51A498379026853B30B6893430B60C5
:1033A0000A1D13680468A343136002790A44136872
:1033B000046823431360114A083213680468A34366
:1033C0001360131D1C680568AC431C604479102C05
:1033D00005D021440A68006802430A6030BD1168C4
:1033E000046821431160196800680143196030BD09
:1033F0000079084401689143016030BD0004014038
:1034000010B559B1064801228276098849BAC161CE
:1034100000210448FFF720FD012010BD002010BD51
:10342000803B00204C060020F8B5002410212C48D9
:10343000009400F044FA06F013FC06F0FFFB0020B5
:10344000009406F01FFC06F077FB41F646750090ED
:10345000B5EB102F08D02349884205D00520FFF78F
:10346000CAFA06F069FB00901F48204A4FF47E23F9
:1034700044601C4C0099641EA14223D00C461C4E93
:103480000121B44202D14FF4FC2309E0184E761C0E
:10349000B44205D0164E4FF4FF134C3EB44201D156
:1034A000436004E0124E433EB44202D142600170D8
:1034B0000BE02146B5EB142F04D041F64774B4EB72
:1034C000112F01D0436000E042600A4B00999942FD
:1034D00000D14260BDE8F840002006F0D3BB0000F8
:1034E000000801401530EF000006002000E03F001A
:1034F0008D25BF0017405E0008B5684600F0E1F971
:103500000120ADF8000000208DF803006946024854
:1035100000F004F808BD000000080140F0B5CA78CA
:10352000002502F00F03D20601D58A7813430A78EA
:103530004FF00F0E12F0FF0F4FF001021CD0046885
:103540000F8802FA05F63740B74211D14FEA850CD1
:103550000EFA0CF724EA070703FA0CF43C43CF7881
:10356000282F02D0482F02D002E0466100E0066119
:103570006D1C082DE4D304600C88FF2C1ED9446810
:103580005FF0000606F1080702FA07F50F882F40E2
:10359000AF420FD14FEA860C0EFA0CF7BC4303FA88
:1035A0000CF73C43CF78282F00D14561CF78482FC6
:1035B00000D10561761C082EE4D34460F0BD000004
:1035C00030B5B0F1004F71D96FF07F4303EAD013EB
:1035D00000F07F04200904F00F04052B08D08500BB
:1035E000AC40062B08D2DFE803F0171A1D20230693
:1035F000420892009440AB4AE8B1012824D0022846
:103600002BD0032832D0042839D005283BD00628F7
:103610003DD007283FD042E0A24A143AECE7A14A45
:10362000103AE9E79F4A0C3AE6E79E4A083AE3E790
:103630009C4A121FE0E71068052B02D020F00F0013
:103640002CE020F0030029E01068052B02D020F0C8
:10365000F00023E020F00C0020E01068052B02D0E1
:1036600020F470601AE020F0300017E01068052B9D
:1036700002D020F4704011E020F0C0000EE010688D
:1036800020F470200AE0106820F4700006E0106852
:1036900020F0706002E0106820F070401060012996
:1036A00002D110682043106030BDFFE77D4A343AF4
:1036B000B0F5406F71D03BDC40286FD015DC04289A
:1036C0004BD004DC01286BD00228EDD145E0102856
:1036D00071D02028E8D1506820F0300050600129D6
:1036E000E2D1506840F02000CFE0B0F5007F76D006
:1036F0000EDC802869D0B0F5807FD5D1506820F4E9
:10370000407050600129CFD1506840F48070BCE017
:10371000B0F5407F7AD0B0F5006FC5D1506820F485
:10372000406050600129BFD1506840F40060ACE0B7
:10373000B0F1807F69D019DCB0F5803F0DD006DC98
:10374000B0F5804F77D0B0F5004FADD105E0B0F5C2
:10375000003F02D0B0F5802FA6D153688343536059
:103760000129A1D15168014351609DE7B0F1007F6B
:1037700078D0B0F1806F7FD0B0F1884F71D0B0F1C8
:10378000904F91D1D06920F04060D06101298BD158
:10379000D06940F00060D06186E741E020E0FFE7BB
:1037A0005068414B184050600129DED1506840F00C
:1037B00001006AE0FFE7506820F030005060012906
:1037C000D3D1506840F010005FE0506820F0C00096
:1037D00050600129C9D1506840F0800055E009E0EF
:1037E000506820F0C00050600129BED1506840F000
:1037F00040004AE0506820F4407050600129B4D184
:10380000506840F4007040E000E01EE0506820F492
:10381000407050600129A8D1506840F4407034E0F5
:10382000506820F44060506001299ED1506840F4F7
:1038300040602AE0FFE7506820F4C0405060012952
:1038400093D1506840F480401FE0506820F0E06061
:103850005060012989D1506840F0807015E001E086
:103860000AE014E0506820F0E0605060012993D134
:10387000506840F0007008E0506820F0E060506050
:10388000012989D1506840F0806050600CE7D06910
:1038900020F04060D0610129F8D1D06940F080600B
:1038A00079E7000034000140FEFFFF7F0246002060
:1038B00092680A4200D0012070474161704701615F
:1038C00070474FF6FF710180022181700421C170A1
:1038D000704700000148006870470000140600208F
:1038E0000E4810B50C490068FCF77FFDFCF724FF7B
:1038F0000B4C0C4920610C480068FCF776FDFCF786
:103900001BFFA0810A4809490068FCF76EFDFCF71F
:1039100013FFE08110BD000000007A44B4010020D4
:10392000803B00200000C842AC0100200000204184
:10393000A801002070B5154803F0E0F8144C1549B3
:10394000154D60610968B1F17E5F1DDD2968206950
:10395000FCF720FF13D1D4E90501884201D3401AB6
:1039600001E0C94308444EF6602188420BD30B495D
:10397000012081F83400BDE8704000F0E5BC6069CA
:10398000A0612868206170BDA06170BD3C0000206E
:1039900018020020AC010020B4010020803B002070
:1039A00010B5244C207805281CD2DFE800F003096C
:1039B0000F1518000221002005F08AFBA06015E019
:1039C0000221012005F084FBE0600FE002211320BA
:1039D00005F07EFB206109E005F050FB06E005F0F4
:1039E0009DFB03E005F0E0FA002020702078401CE9
:1039F0002070A068A0F57061043909D1E068A0F5D5
:103A00008851833904D12069A0F57061FF390FD046
:103A100000F09AFC08A0A16808F018FF0DA0E1686A
:103A200008F014FF2169BDE8104011A008F00EBF96
:103A300010BD000038010020746573745531365F85
:103A4000535953434F4E44617461203D2025780AF9
:103A500020000000746573745531365F454D554341
:103A60004F4E44617461203D2025780A20000000FB
:103A7000746573745531365F454D55434F4E32442E
:103A8000617461203D2025780A2000002DE9F04175
:103A900000240F4E254627464FF001086006040E0D
:103AA000C6F8A0810A200AF077F8C6F8A0710A20AB
:103AB0000AF072F8D6F81801012801D144F0010487
:103AC0006D1CEDB2082DE9D32046BDE8F081000061
:103AD000008021422DE9F0470024104D06464FF0AA
:103AE000800927464FF0010829FA04F0304202D03D
:103AF000C5F89C8101E0C5F89C71C5F8A0810A2039
:103B00000AF04AF8C5F8A0710A200AF045F8641CCA
:103B1000E4B2082CE8D3BDE8F08700000080214221
:103B200040F08000FFF7D6BF10B50B4C0020C4F862
:103B3000A4010A2004F5D2740AF02EF8EA20FFF757
:103B4000C9FFDC20FFF7C6FF01202060BDE8104060
:103B50000A200AF021B800000080214210B50B4C69
:103B60000020C4F8A4010A2004F5D2740AF014F865
:103B7000EA20FFF7AFFFE520FFF7ACFF0120206050
:103B8000BDE810400A200AF007B80000008021427A
:103B9000704770477047704770477047704770476D
:103BA000704770477047704770477047704770475D
:103BB000704770477047704770477047704770474D
:103BC000704770477047704770477047704770473D
:103BD000704770477047000070B500780124194D98
:103BE000042820D005280AD0062822D0072827D16B
:103BF000AC70BDE8704014491448FFF72DB9FDF7CB
:103C0000F7FB00281CD0AC7000211148FFF724F905
:103C1000104A0821322002F02DFFBDE870409621A5
:103C200064200BF09FB9AC70BDE87040002001F03B
:103C3000C3BBAC70FDF72AF9BDE87040FDF7F6B9DB
:103C400070BD00004806002060060020900800209B
:103C5000280700203C0000200078022807D10449F2
:103C600000208870034800210068FFF7F5B870470E
:103C700048060020000700200078022807D10449E8
:103C800000208870034800210068FFF7E5B87047FE
:103C90004806002014070020027800200449012A69
:103CA00003D0032A01D0042A00D188707047000095
:103CB0004806002010B5007804282CD00BDC012821
:103CC0001FD0022821D003281ED117480021BDE8AB
:103CD0001040FFF7C1B815494FF4FA640F281FD000
:103CE00010281FD011280FD10320087601F0C8FA40
:103CF0000F4A0821204602F0BDFEBDE8104006F044
:103D000099BC0C490020887010BD0B48FFF794F84F
:103D100000210948DBE7BDE81040002001F04CBB62
:103D20000120E2E70220E0E728070020A870002039
:103D30003C000020480600205007002010B5007805
:103D400000214FF4FA64062820D00BDC012817D09C
:103D5000022818D0032815D115480021BDE81040CD
:103D6000FFF77AB8134A072813D0082814D012286E
:103D700008D1BDE810400F2141F2057005F0C6B82A
:103D80000D48817010BD00210C48E7E7FEF7F4FCF8
:103D900005E00120507600E0517601F071FA084A02
:103DA0000821204602F066FEBDE8104006F042BC45
:103DB00064070020A8700020480600203C0700206F
:103DC0003C0000200078012805D0022806D10021FF
:103DD0000348FFF741B8034900208870704700008E
:103DE000500700204806002010B5017802201D4C25
:103DF00006292BD009DC032920D0042922D005294B
:103E00002FD1A0700021184827E0072922D00F29C0
:103E100027D1FDF7EDFA002823D00120A070002162
:103E20001248FFF719F8124A0821322002F022FE48
:103E30009621BDE8104064200BF094B8BDE8104016
:103E4000FEF7F2BBA07000210A4806E0A070002136
:103E5000094802E0A07009480021BDE81040FEF7C3
:103E6000FBBF10BD48060020A00700202807002047
:103E70003C0000208C070020B4070020C807002069
:103E8000017841F68D000A2918D007DC02290CD0F0
:103E9000082911D0092916D1062112E00B290FD0CB
:103EA0000E2910D1012105F031B807490020887092
:103EB00001460648FEF7D0BF032102E0092100E0D9
:103EC0000C2104F0C8B9704748060020780700208C
:103ED000017841F60D100A2918D007DC02290CD010
:103EE000082911D0092916D10A2112E00B290FD077
:103EF0000E2910D1012105F009B80749002088706A
:103F000001460648FEF7A8BF052102E00F2100E0A8
:103F1000142104F0A0B9704748060020780700205B
:103F2000017841F68D100A2918D007DC02290CD03F
:103F3000082911D0092916D13C2112E00B290FD0F4
:103F40000E2910D1012104F0E1BF0749002088703B
:103F500001460648FEF780BF1E2102E05A2100E01C
:103F6000782104F078B970474806002078070020CF
:103F700010B5007805280CD1FDF73AFA002808D0D2
:103F8000044901208870BDE8104000210248FEF776
:103F900063BF10BD4806002028070020017841F6C5
:103FA0000D200A2918D007DC02290CD0082911D0CD
:103FB000092916D10C2112E00B290FD00E2910D19E
:103FC000012104F0A3BF074900208870014606487C
:103FD000FEF742BF062102E0122100E0172104F0A3
:103FE0003AB9704748060020780700200078022878
:103FF00004D1034800210068FEF72EBF704700007F
:1040000050070020027800200649012A08D0022A21
:1040100006D0122A05D10F2141F6053004F076BFF3
:1040200088707047480600200078022804D10348B1
:1040300000210068FEF710BF704700005007002005
:1040400010B50078052815D1FDF7D2F9002811D058
:1040500009490120887000210848FEF7FDFE084A42
:104060000821322002F006FD9621BDE810406420B0
:104070000AF078BF10BD0000480600202807002085
:104080003C0000200078012802D1024900208870FD
:1040900070470000480600200078012806D002285A
:1040A00008D0042805D1022001F086B90249002079
:1040B000887070470120F7E7480600200078012843
:1040C00004D0022805D1012001F076B90149002071
:1040D00088707047480600200078042807D005281B
:1040E00009D10549012088700449054801E00349C8
:1040F0000448FEF7B1BE704748060020880600203D
:1041000028070020B00600200078062807D2DFE844
:1041100000F0060307090B0E06490020887070475F
:10412000012002E0012003E00A20FDF741B80A2047
:10413000FCF7E0BF480600200078012806D00228DE
:1041400008D0032805D10A20FDF732B80249002023
:10415000887070470120F7E74806002002780020A9
:104160000349012A01D0022A00D18870704700005B
:1041700048060020027800200349012A01D0022AC3
:1041800000D18870704700004806002002780020A7
:104190000349012A01D0022A00D18870704700002B
:1041A00048060020027800200349012A01D0022A93
:1041B00000D1887070470000480600200278002077
:1041C0000349012A01D0022A00D1887070470000FB
:1041D00048060020027800200349012A01D0022A63
:1041E00000D1887070470000480600200278002047
:1041F0000349012A01D0022A00D1887070470000CB
:1042000048060020704700000078022804D10348C7
:1042100000210068FEF720BE70470000B0060020B5
:104220000078022807D10449002088700348002143
:104230000068FEF711BE704748060020C406002043
:104240000078022807D10449002088700348002123
:104250000068FEF701BE704748060020D80600201F
:104260000078022807D10449002088700348002103
:104270000068FEF7F1BD704748060020EC060020FC
:104280001CB5EFF30981EFF309804969009140699A
:1042900001900423104A0021082009F03FFF0E4836
:1042A0000178FF2901D100210170C9B2491C0170B8
:1042B00004236A461946082009F050FF0821042308
:1042C00001AA084609F04AFF0123034A00210820F9
:1042D00009F044FFFEE700003022002070B50446DC
:1042E0000D4645F2555000F015F8204600F020F834
:1042F000284600F023F800F013F8BDE8704000F005
:1043000001B8000002494CF6CC400860704700003C
:104310000030004001490860704700000030004054
:1043200002494AF6AA2008607047000000300040A9
:104330000149486070470000003000400149886032
:104340007047000000300040F8B5642009F0FCFB25
:104350000121082004F044FC4FF46070ADF8000027
:1043600002248DF802401020584D8DF80300694654
:104370002846FFF7D3F84020ADF800008DF8024042
:1043800004208DF8030069462846FFF7C7F840214E
:104390002846FFF794FA0A2009F0D6FB4C4C012678
:1043A000C4F8A461022004F5CE7409F0F5FB0220E4
:1043B00009F0F2FB00256560022009F0EDFB2560A5
:1043C000FFF7CCFBA5600A2009F0E6FBEA20FFF727
:1043D00081FB5A20FFF77EFBA6600A2009F0DCFB78
:1043E000A5600A2009F0D8FB0020FFF799FB0F20F9
:1043F000FFF770FB0420FFF76DFBA6600A2009F0B1
:10440000CBFBA5600A2009F0C7FB0120FFF788FB62
:104410001020FFF75FFB0320FFF75CFBA6600A207C
:1044200009F0BAFBA5600A2009F0B6FB1320FFF7DC
:1044300077FB0F20FFF74EFBFF20FFF74BFBA6603B
:104440000A2009F0A9FBA5600A2009F0A5FB40207D
:10445000FFF766FB0020FFF73DFB0020FFF73AFB6C
:10446000A6600A2009F098FBFFF75EFB022170208E
:1044700004F02EFE174C02212062712004F028FE69
:1044800060620221722004F023FEA06202217320E8
:1044900004F01EFEE0620221742004F019FE206385
:1044A0000221752004F014FE60630221762004F0DE
:1044B0000FFEA0630221772004F00AFEE06300F003
:1044C0000BF805F0E3FE05F07FFFF8BD000C01409E
:1044D000008021423801002010B50221702004F034
:1044E000F7FD3B4C02212062712004F0F1FD606277
:1044F0000221722004F0ECFDA0620221732004F07E
:10450000E7FDE0620221742004F0E2FD2063022155
:10451000752004F0DDFD60630221762004F0D8FDF3
:10452000A0630221772004F0D3FDE06302216F2015
:1045300004F0CEFD2064208CA18C0844218D084419
:10454000A18D0844218E0844A18E0844218F08447F
:10455000A18F08444FF6FF710844C04380B26064E5
:104560001CA008F073F922A0216A08F06FF927A0B7
:10457000616A08F06BF92CA0A16A08F067F931A014
:10458000E16A08F063F936A0216B08F05FF93BA0FF
:10459000616B08F05BF940A0A16B08F057F945A0EA
:1045A000E16B08F053F94AA0216C08F04FF94FA0D5
:1045B000616C08F04BF9D4E91001814202D1012469
:1045C00051A001E0002457A008F040F9204610BD9A
:1045D00038010020E8BDACE68DA2E7B3BBE695B09C
:1045E000E5AF84E5AD98E599A85C720A000000008B
:1045F0005531365F524D534941435F5265674461BF
:104600007461203D2025780A200000005531365F76
:10461000524D534942435F52656744617461203D86
:104620002025780A200000005531365F524D535541
:10463000435F52656744617461203D2025780A20FC
:10464000000000005531365F506F7765725041436E
:104650005F52656744617461203D2025780A20001F
:104660005531365F506F7765725042435F526567D0
:1046700044617461203D2025780A20005531365F61
:10468000506F77657253435F526567446174612070
:104690003D2025780A2000005531365F456E657251
:1046A000677941435F52656744617461203D20250D
:1046B000780A20005531365F456E6572677942434E
:1046C0005F52656744617461203D2025780A2000AF
:1046D0005531365F436865636B53554D5F5265676F
:1046E00044617461203D2025780A20005531365FF1
:1046F000436865636B53554D5F44617461203D2091
:1047000025780A2000000000E7B3BBE695B0E5AFCE
:1047100084E5AD98E599A8E6A0A1E9AA8C6F6B0D98
:104720000A000000E7B3BBE695B0E5AF84E5AD98BD
:10473000E599A8E6A0A1E9AA8C6661696C0D0A005A
:10474000012080F3138804494868044A50621062CB
:10475000096881F3088800470090010800000020E4
:10476000074991F8C820885491F8C800401CC0B28D
:1047700081F8C800C82802D3002081F8C80070471B
:104780000071002010B50446000C00F019F8A0B22A
:10479000BDE8104000F014B810B5074C064814F8F6
:1047A000C81F06F0E1F900202070044A08211420F7
:1047B00002F060F9207810BD007100203C0000205C
:1047C00010B50446000AFFF7CBFFE0B2BDE8104089
:1047D000FFF7C6BF2DE9F8430121084604F000FAAF
:1047E0000121802004F0FCF90121042004F0F8F9F3
:1047F0000121102004F0F4F90121202004F0F0F947
:104800000121082004F0ECF901214806FEF7D8FE4A
:104810004020ADF800000224454E8DF802401025DE
:104820008DF8035069463046FEF778FE4021304649
:10483000FFF743F88020ADF800008DF802404820D3
:104840008DF8030069463046FEF768FEADF800506B
:10485000384E8DF802408DF8035069463046FEF719
:104860005DFE10213046FFF728F80820ADF8000063
:10487000314F8DF802408DF8035069463846FEF7F7
:104880004DFE08213846FFF718F8A603ADF8006082
:10489000DFF8A8808DF802408DF803506946404645
:1048A000FEF73CFE31464046FFF707F8ADF80050F2
:1048B0008DF802408DF8035069463846FEF72EFE0B
:1048C0002003ADF800008DF802408DF803506946D2
:1048D0001B48FEF723FEADF800408DF802408DF82E
:1048E000035069463846FEF719FEE002ADF80000B5
:1048F0008DF802408DF8035069464046FEF70EFEE3
:10490000A002ADF800008DF802408DF80350694612
:104910004046FEF703FEE001ADF800008DF80240CE
:104920008DF8035069464046FEF7F8FDBDE8F88370
:10493000001C014000140140000C0140000801402F
:1049400000100140FEE70A46002100F001B8000017
:1049500010B500234FEA0304641C41EA0323042C2E
:10496000FAD310F0030405D10BE000BF521E00F88B
:10497000011B641C002A0CD0042CF7D301E008C0F2
:10498000121F042AFBD202E000F8011B521E002A6B
:10499000FAD110BD2DE9F0478946074690460C2113
:1049A00020A006F0F9F8234C0026234D2671234A57
:1049B0000821642002F05EF8A87BC00607D5A87B1A
:1049C00020F01000A8732079142806D207E020797F
:1049D000401CC0B220711428E9D319A015E042464A
:1049E0004946384600F0EEF826713D44134A082146
:1049F000642002F03FF8E87B01280BD02079401CAE
:104A0000C0B220713228F1D316A007F01FFF00209A
:104A1000BDE8F087EE7320793228F5D20120687066
:104A2000F6E7000041542B4E45544F50454E0D0AB9
:104A300000000000E4020020405500203C0000205F
:104A4000726573706F6E6420636D643A4154434DB8
:104A5000445F4E45544F50454E2074696D656F75E7
:104A600074000000726573706F6E6420636D643A49
:104A70004154434D445F4349504F50454E20746963
:104A80006D656F75740000002DE9F04389B08946AB
:104A90000546904600241C2101A8FBF7EBFB2B46A2
:104AA0002EA2192101A8CDF8008007F0DFFE0146F3
:104AB000401C3DD008A8002300901A4619462C48F7
:104AC00001F02EF92B48002746192B48777490F8EF
:104AD0003200012819D90A2D2ED8B9F1000F2BD098
:104AE00001A8FBF7E4FB81B201A805F0D3FF234A3C
:104AF0000821322001F0BEFF707C012822D0641C06
:104B0000E4B2642CF3D3642C1ED04146484605F031
:104B1000C1FF08AA0021164801F0D2F9174A08215E
:104B20004FF47A7001F0A6FF012009B0BDE8F083D0
:104B300013A007F08BFE0FE008AA00210C4801F03B
:104B4000BFF909E07774DEE708AA0021084801F000
:104B5000B7F913A007F07AFE0020E6E741542B4393
:104B6000495053454E443D25642C25640D0A0000F0
:104B70007C4E002040550020480200203C000020D0
:104B8000736E7072696E7466206572726F722C201B
:104B9000746865206C656E206973202564000000D0
:104BA000726573706F6E6420636D643A4154434D57
:104BB000445F53454E4441434B2074696D656F75A6
:104BC0007400000010B592B0F9B10A281DD8CDE9E3
:104BD000001203460EA23C2102A807F047FE014640
:104BE000401C0FD002A8FBF762FB81B202A805F0BF
:104BF000D3FF044602A8FBF75AFB844205D10120EB
:104C000012B010BD0AA007F021FE0020F8E7000056
:104C100041542B4349504F50454E3D25642C22545E
:104C20004350222C222573222C25640D0A000000FB
:104C3000736E7072696E7466206572726F722C206A
:104C4000746865206C656E2069732025640000001F
:104C50002DE9F04704460020FCF7D6F9002C7AD065
:104C60002078002874D005F053FA4FF4FA78444ABB
:104C70000821404601F0FEFE424C0026424DA6604F
:104C80003F4A0821642001F0F5FEA879012864D08C
:104C9000A068401CA0601428F2D3A06814285ED03D
:104CA0003A4F07F12203398AA3F11002384605F082
:104CB000B3F9334A0821404601F0DCFEA660304AD1
:104CC0000821642001F0D6FEE879012849D0A068C7
:104CD000401CA0606428F2D3A068642843D005F08B
:104CE00061F9274A0821404601F0C4FEA660244A23
:104CF0000821642001F0BEFE287B012835D0A06881
:104D0000401CA0601428F2D3A06814282FD01F489C
:104D10003230814605F0ECF8194A0821404601F08E
:104D2000A9FEA660164A0821642001F0A3FEA86827
:104D300001281ED0A068401CA0601428F2D3A068EF
:104D4000142818D0484605F099F8012087F8580033
:104D5000BDE8F087FFE70020FAE7AE719DE70CA001
:104D60000AE0EE71B8E712A006E02E73CCE718A0B7
:104D700002E0AE60E3E720A007F068FDEBE700008B
:104D80003C000020E402002040550020204E00207E
:104D9000726573706F6E6420636D643A73746172D0
:104DA000746674705F74696D656F757400000000DF
:104DB000726573706F6E6420636D643A6674706CB4
:104DC0006F67696E5F74696D656F757400000000D0
:104DD000726573706F6E6420636D643A4654505F01
:104DE00066747064776F6E6C6F6164747970655F00
:104DF00074696D656F757400726573706F6E642091
:104E0000636D643A4654505F66747064776F6E6C7D
:104E10006F616473697A655F74696D656F7574003D
:104E20002DE9F041092153A005F0B6FE544C0026AF
:104E3000544DE670544A0821642001F01BFEA87B03
:104E4000C00704D0A87B20F00100A87305E0E0783B
:104E5000401CC0B2E0701428ECD3E07814280FD0C6
:104E600004F0E6FFE670484A0821642001F002FEE3
:104E7000A87B800706D5A97B21F00201A97307E072
:104E800042A072E0E078401CC0B2E0701428EAD37F
:104E9000E07814280FD004F021FFE6703A4A082188
:104EA000642001F0E7FDA87B400706D5A97B21F02F
:104EB0000401A97307E03DA057E0E078401CC0B2B0
:104EC000E0701428EAD3E07814281CD03F4F97F8FC
:104ED0003200012819D00E213DA005F05DFE2A4ABE
:104EE00008214FF4FA7001F0C5FDE670264A08214A
:104EF000642001F0BFFDA87B000709D5A97B21F044
:104F00000801A9730AE036A02FE004F03DFFE6E7B0
:104F1000E078401CC0B2E0701428E7D3E078142891
:104F200022D097F8320001281AD90F2135A005F0B8
:104F300033FEE670144A0821642001F09BFDA87B33
:104F4000800604D5A87B20F02000A87305E0E07857
:104F5000401CC0B2E0701428ECD3E078142803D0D1
:104F600001202870BDE8F0812AA007F06FFC002026
:104F7000F8E7000041542B43494D490D0A00000059
:104F8000E4020020405500203C0000207265737050
:104F90006F6E6420636D643A4154434D445F4349EE
:104FA0004D492074696D656F75740000726573708A
:104FB0006F6E6420636D643A4154434D445F4353C4
:104FC000512074696D656F757400000048020020FF
:104FD00041542B4349504D4F44453D300D0A00008C
:104FE000726573706F6E6420636D643A4154434D13
:104FF000445F434744434F4E542074696D656F7559
:105000007400000041542B43495052584745543DC9
:10501000310D0A00726573706F6E6420636D643ABF
:105020004154434D445F4349504D4F4445207469BA
:105030006D656F757400000010B51648144CC36997
:1050400009B1042A01D0002010BD08888A7840BA2E
:105050000004C97840EA022008430F49A0420968C9
:1050600005D10E48FDF7F8FE00F00AF90EE098426F
:1050700009D100210A48FDF7EFFE00F001F90848C8
:10508000FDF7DAFE02E00748FDF7E6FE012010BD5D
:1050900038900D00A8700020280700203C07002051
:1050A000F00700201808002010B54FF0000000297C
:1050B00027D0144A4FF03003135400F10100C0B25E
:1050C0001028F9D300200B5CA3F13004092C04D87C
:1050D0001354401CC0B21028F5D32523094A0021DF
:1050E000012009F03BF800F0CBF8074A0821052021
:1050F00001F0C0FC0E22034941F2500003F0D9F840
:10510000012010BDA87000203C0000200EB509B1A0
:10511000022A01D000200EBD0B484B780374C27CDC
:10512000817C407C8DE8070008A210210A4807F026
:105130009DFB2523044A0021012009F00FF800F00F
:105140009FF801200EBD0000A870002025642E25C8
:10515000642E25642E2564006A0200200EB509B174
:10516000022A01D000200EBD48780B494874CB7C40
:105170008A7C8DE80D000B7C08A210210A4807F0FC
:1051800075FB2523044A0021012008F0E7FF00F009
:1051900077F801200EBD0000A870002025642E25A0
:1051A000642E25642E2564006A0200200EB509B124
:1051B000022A01D000200EBD4A780B498A74487C2F
:1051C000CB7C8DE80D000B7C08A210210A4807F06B
:1051D0004DFB2523044A0021012008F0BFFF00F009
:1051E0004FF801200EBD0000A870002025642E2578
:1051F000642E25642E2564006A0200200EB509B1D4
:10520000022A01D000200EBD4B780B49CB74487C9C
:105210008A7C8DE80D000B7C08A210210A4807F05B
:1052200025FB2523044A0021012008F097FF00F008
:1052300027F801200EBD0000A870002025642E254F
:10524000642E25642E2564006A02002010B509B181
:10525000022A01D0002010BD0888074940BA252342
:1052600088820649044A08840021012008F076FF5C
:1052700000F006F8012010BDA870002048020020B0
:1052800070B58AB0002004460490059006900790FF
:105290000890102244494FF4B45003F00AF8434EEA
:1052A00041F21201307941EAC0100D21FDF716FCE0
:1052B0003D4DA88A40BAADF80C0001A82919097C17
:1052C000090220F81410641CE4B2042CF6D3DDE9C2
:1052D0000101CDE90401BDF80C00ADF818003079EA
:1052E00041F2090141EAC0100A2204A902F0E1FFDB
:1052F000286A082201BAE86900BACDE907102C48EB
:1053000041F20501007941EAC01007A902F0D1FF7E
:10531000284841F21E010422007941EAC01008A980
:1053200002F0C7FF297E41F21574661C41F29E60AF
:10533000012904D0022907D003290ED018E0012149
:1053400002F072FF002103E0002102F06DFF012155
:10535000204602F069FF002107E0002102F064FF0F
:105360000021204602F060FF0121304602F05CFF80
:10537000697E4FF4B550441C012901D029B10BE0DE
:10538000012102F051FF002103E0002102F04CFF57
:105390000121204602F048FF2523034A0021012075
:1053A00008F0DCFE0AB070BDA87000203C070020A9
:1053B00064070020F00700202DE9F04FFBB0804685
:1053C000002430216EA8FAF755FFDC216846FAF771
:1053D00051FFDC2137A8FAF74DFF0020FF4D2F22A7
:1053E0000DF5DC7A291811F8203F49788B4203D05B
:1053F0000AF80400641CE4B22E2803D10AF8042041
:10540000641CE4B2401CC0B22F28EBD3A1074FF0BC
:1054100001001BD000EB9407F14EB8F1000F04D04F
:105420007078B8F1010F13D0401C7070FEF752FA7B
:105430007378014673B1EB4AEB48BB420DD1914200
:1054400002D0814200D00021E8480CE0A708E3E741
:10545000401EEAE70068002105E0914202D0814247
:1054600000D00021E248FDF7F7FC00203C210DF1BF
:10547000DC0B8046E94619E06EAA09EB8003125C5A
:10548000521CC2EB02125200B2FBF1FCA3F802C0A4
:10549000BCF1180F01D1A3F80280B2FBF1F301FBBC
:1054A00013230BEB8002401C5380C0B2A042E3D315
:1054B0007178DFF83C83DFF834A301297ED009EB53
:1054C000011198F804204FF4805031F8121C40EA82
:1054D000C21002F0C0FE717898F804200BEB0110A6
:1054E00030F8121C41F2010040EAC21002F0B3FE93
:1054F00071789AF8042009EB011030F8121C4FF46F
:10550000805040EAC21002F0A6FE71789AF804209A
:105510000BEB011030F8121C41F2010040EAC210FE
:1055200002F099FEAE4E41F20202717809EB0110D1
:1055300030F80E1CAE48007942EAC01002F08BFE33
:10554000717841F203020BEB011030F80E1CA848F1
:10555000007942EAC01002F07EFE7178684600EBE6
:10556000011041F2040230F80A1CA148007942EA15
:10557000C01002F070FE717837A800EB011041F204
:10558000050230F80A1C9A48007942EAC01002F07D
:1055900062FE7178684600EB011041F2060B30F8AC
:1055A000061C934802794BEAC21002F054FE71784F
:1055B00037A800EB011030F8061C00E09AE08C4898
:1055C000027941F2070040EAC21002F044FE71780D
:1055D000684600EB011041F2080930F8021C8448CB
:1055E000027949EAC21002F036FE717837A800EB62
:1055F000011041F2090830F8021C7D48027948EA9E
:10560000C21002F028FE7178684600EB011041F2EA
:10561000020230F80E1C9AF8040042EAC01002F0B0
:105620001AFE717837A800EB011041F2030230F83E
:105630000E1C6E48007942EAC01002F00CFE717830
:10564000684600EB011041F2040230F80A1C67487A
:10565000007942EAC01002F0FEFD717837A800EB35
:10566000011041F2050230F80A1C6048007942EA54
:10567000C01002F0F0FD7178684600EB011030F8C0
:10568000061C5A4802794BEAC21002F0E4FD717818
:1056900037A800EB011030F8061C5448027941F29B
:1056A000070040EAC21002F0D6FD7178684600EBB0
:1056B000011030F8021C4D48027949EAC21002F08C
:1056C000CAFD717837A800EB011030F8021C47487A
:1056D000027948EAC21002F0BEFD7078DFF8FC9053
:1056E0008000001FC6B241F20A0B09F12009DFF861
:1056F000F0807AE198F804104FF4805040EAC1102D
:10570000002102F0A8FD98F8041041F2010040EADF
:10571000C110002102F09FFD9AF804104FF4805050
:1057200040EAC110002102F096FD9AF8041041F2FF
:10573000010040EAC1100021F2E6B8427ED2012FFA
:105740007CD0A6427AD2B00709D006F00300012827
:1057500026D0022854D0F043800777D043E16EA8CA
:10576000815D11F8090005EB800001684FF47A7043
:10577000B1FBF0F081B21E4802794BEAC21002F090
:105780006AFD6EA8815D11F8090005EB80000169D2
:105790004FF47A70B1FBF0F081B215480079A8E0BF
:1057A0006EA8815D11F8090005EB800001684FF4D7
:1057B0007A70B1FBF0F081B20D48027941F20B0032
:1057C00040EAC21002F047FD6EA8815D11F80900A1
:1057D00005EB800001694FF47A700BE07A6A0020D3
:1057E000180600203C07002060060020400800202A
:1057F0002C080020B1FBF0F081B2814800799EE0D6
:105800006EA8815D11F8090005EB800001684FF476
:105810007A70B1FBF0F081B27948027941F20C0064
:1058200040EAC21002F017FD6EA8815D11F8090070
:1058300005EB800001694FF47A7001E029E005E092
:10584000B1FBF0F081B26E4800799EE06EA8815DF8
:1058500011F8090005EB800001684FF47A70B1FB84
:10586000F0F081B26648027941F20D0040EAC210C0
:1058700002F0F1FC6EA8815D11F8090005EB8000D3
:1058800001694FF47A70B1FBF0F081B25C480079A5
:10589000A2E0B8420CD1A6420AD2B00709D006F065
:1058A0000300012829D002284DD0F043800771D091
:1058B00099E06EA89AF80420815D11F8090005EBC3
:1058C000800001684FF47A70B1FBF0F081B24BEACE
:1058D000C21002F0C0FC6EA8815D11F8090005EB52
:1058E000800001694FF47A70B1FBF0F081B29AF850
:1058F0000400C2B241F20E0071E06EA89AF80420D2
:10590000815D11F8090005EB800001684FF47A70A1
:10591000B1FBF0F081B241F20B0040EAC21002F09C
:105920009AFC6EA8815D11F8090005EB8000016901
:105930004FF47A70B1FBF0F081B29AF80400C2B271
:1059400041F20F004BE06EA89AF80420815D11F837
:10595000090005EB800001684FF47A70B1FBF0F0AC
:1059600081B241F20C0040EAC21002F074FC6EA851
:10597000815D11F8090005EB800001694FF47A7030
:10598000B1FBF0F081B29AF80400C2B241F210000B
:1059900025E0FFE76EA89AF80420815D11F8090060
:1059A00005EB800001684FF47A70B1FBF0F081B232
:1059B00041F20D0040EAC21002F04DFC6EA8815D7C
:1059C00011F8090005EB800001694FF47A70B1FB12
:1059D000F0F081B29AF80400C2B241F2110040EA3C
:1059E000C21002F038FC761CF6B298F80100B6EB53
:1059F000800FFFF4A2AE7BB00120BDE8F08F000065
:105A00002C0800207047000070B50F23C47801787F
:105A10000122F4B1144C2468457804F4E064C4F520
:105A2000E064240AC4F10406E3408478B5401C40D5
:105A30002C4301F1E021230181F80034007800F0CB
:105A40001F018A404009800000F1E020C0F80021D9
:105A500070BD01F01F0082404809800000F1E02085
:105A6000C0F8802170BD00000CED00E00249084341
:105A700002490860704700000000FA050CED00E0E4
:105A80007047000002480068002800D000477047B7
:105A90007000002010B5044600F0A8F83E48002130
:105AA000484A01703D4801703D4801703D48016021
:105AB0003D4801603D4801703D4801703D4801701E
:105AC0003D4801603D4801603D480160106830B1CB
:105AD0003D48006818B1126802C0521EFCD13B4814
